:100000000C94C1000C94E0000C94E0000C944D02A0
:100010000C94E0000C94E0000C94E0000C94BC09FB
:100020000C94E0000C94E0000C94E0000C94E000D0
:100030000C949E030C94E0000C94E0000C94E000FF
:100040000C94E0000C94E0000C94E0000C94E000B0
:100050000C94E0000C94E0000C94E0000C94E000A0
:100060000C94E0000C94E0000C94E0000C94E00090
:100070000C94E0000C949C280C94E0000C94E0009C
:100080000C94E0000C94E0000C94FB280C94E0002D
:100090000C94E0000C94E0000C94E0000C94E00060
:1000A0000C94E0000C94E0000C94E0000C94E00050
:1000B0000C9410280C94FE030C94E0000C94E000C7
:1000C0000C94E0000C94E0000C94E0000C94E00030
:1000D0000C94E0000C94E0000C94E0000C94E00020
:1000E0000C94E0000C94E0000C94B2080C94E00036
:1000F0000C94E0000C94E0000C94E0000C94E00000
:1001000007634236B79BD8A71A39685618AEBAAB00
:10011000558C1D3CB7CC5763BD6DEDFD753EF61794
:100120007231BF000000803F08000000BE922449E9
:10013000123EABAAAA2ABECDCCCC4C3E0000008019
:10014000BEABAAAAAA3E00000000BF000000803F8C
:100150000000000000084178D3BB4387D1133D194C
:100160000E3CC3BD4282AD2B3E68EC8276BED98F79
:10017000E1A93E4C80EFFFBE01C4FF7F3F000000BD
:10018000000011241FBECFEFCDBFDFE7DEBF11E5BA
:10019000A0E0B0E4EEE4FFE500E00BBF02C0079092
:1001A0000D92A83AB107D9F722E5A8EAB1E501C056
:1001B0001D92AF34B207E1F70E94FE270C94A52FE1
:1001C0000C9400009B01215031091216130684F48F
:1001D000FC01E60FF71FDC0180E090E04C915291AA
:1001E0005D93408301962150310982179307B4F340
:1001F00008958F929F92AF92BF92CF92DF92EF922B
:10020000FF920F931F93CF93DF937A0169016115DA
:10021000710581059105E9F08A01C0E0D0E00F2E5B
:10022000FAE08F2E912CA12CB12CF02D2196A50156
:1002300094010E942A2D605DF80161938F01622F65
:10024000732F842F952F611571058105910571F725
:1002500002C0C0E0D0E0CC15DD055CF4CE0DDF1DA2
:1002600097012C0D3D1D80E38993C217D307E1F759
:1002700001C06E01B601C7010E94E200F701EC0D5A
:10028000FD1D1082C601DF91CF911F910F91FF904C
:10029000EF90DF90CF90BF90AF909F908F90089598
:1002A0002F923F924F925F926F927F928F929F9286
:1002B000AF92BF92CF92DF92EF92FF920F931F9374
:1002C000CF93DF934B015C018A01E9010E94152A5B
:1002D0006B017C01072E000C880B990B20E030E0AD
:1002E000A8010E94F9001C012097A9F1F801E80F6C
:1002F000F91F8EE28083BE010D2E000C880B990B36
:100300000E944D2A9B01AC0160E070E080E291E424
:100310000E946F2B2B013C01B601DD0C880B990B61
:100320000E944D2A9B01AC01C501B4010E943129F4
:100330002FEF221A320A020D131DA30192010E940F
:10034000022B0E94152A072E000C880B990B9E0188
:10035000A8010E94F900DF91CF911F910F91FF90AA
:10036000EF90DF90CF90BF90AF909F908F907F9055
:100370006F905F904F903F902F900895E0E4F4E0ED
:1003800020812D7F2083208121602083BC0180E09B
:1003900090E00E944B2A20E030E040E851E40E94C7
:1003A000022B9B01AC0160E074E284E79DE40E94B3
:1003B000A32920E030E040E05FE30E9432290E9460
:1003C0001C2AE0E2F8E0608771878681806C868372
:1003D0000895E0E2F8E0948195FFFDCF8093220834
:1003E0000895EF92FF920F931F93CF93DF938C01A9
:1003F0007C01C0E0D0E006C0F70181917F010E943E
:10040000E9012196F80101900020E9F73197E01BFE
:10041000F10BCE17DF0780F38AE00E94E901DF913C
:10042000CF911F910F91FF90EF900895EF92FF925F
:100430000F931F93CF93DF938C017C01C0E0D0E03A
:1004400006C0F70181917F010E94E9012196F80120
:1004500001900020E9F73197E01BF10BCE17DF0781
:1004600080F3DF91CF911F910F91FF90EF9008954E
:1004700020E030E04BEE51E50E94F9008BEE91E573
:100480000E94F10108959A014BEE51E50E9450013E
:100490008BEE91E50E94F10108951F920F920FB625
:1004A0000F9211240BB60F928F93EF93FF9381E07D
:1004B0008093CF51E3E4F1E0808181608083FF91FC
:1004C000EF918F910F900BBE0F900FBE0F901F906A
:1004D00018952F923F924F925F926F927F928F92D8
:1004E0009F92AF92BF92CF92DF92EF92FF920F93C3
:1004F0001F93CF93DF934B015C0178948DE390E4DD
:100500000E94F101C501B4010E943802C0E0D0E0B0
:1005100001C0EC01BE0180E090E00E944B2A9B01EB
:10052000AC0160E070E080E090E40E946F2B662EEA
:10053000772E082F192FC501B4010E944B2A6B0199
:100540007C0120E030E04AE754E4662D772D802FCF
:10055000912F0E94022B9B01AC01C701B6010E94A2
:10056000A32920E030E040E057E40E94022B0E94E3
:100570001C2A6B017C01CE01019621E0C216D10438
:10058000E206F10430F689E490E40E94F101662D60
:10059000772D802F912F0E94152A0E94380285E521
:1005A00090E40E94F101C701B601882799270E94B3
:1005B000380285E690E40E94F101B60180E090E007
:1005C0000E944B2A262D372D402F512F0E94022B9F
:1005D00020E030E04AE754E40E94022B20E030E0C3
:1005E00040E058E30E94022B20E030E040E05FE36F
:1005F0000E9432290E941C2A2B013C018AE790E4C8
:100600000E94F101C301B2010E94380280E990E426
:100610000E94F101C501B4010E9438028EE990E404
:100620000E94F101C20188199909BC0122F46627D0
:100630007727681B790B072E000C880B990BA501F7
:1006400094010E94082DA4E6B0E00E94582D0E945B
:100650004B2A44E050E00E94430200E411E0F8011C
:10066000C286D3861782CC0FCC0FCC0FC168C08353
:100670008281816082838EEA90E40E94F101F80118
:10068000C08189E490E40E94F101C8776C2F70E08A
:1006900075956795759567957595679580E090E078
:1006A0000E944B2A9B01AC0160E070E080E090E486
:1006B0000E946F2B0E94152A0E94380285E590E463
:1006C0000E94F101F8016285738580E090E00E944C
:1006D00038028AE790E40E94F101C301B2010E944E
:1006E000380284E390E40E94F101DF91CF911F91E1
:1006F0000F91FF90EF90DF90CF90BF90AF909F90C1
:100700008F907F906F905F904F903F902F900895C3
:1007100078948FE99FE080930C0B90930D0BE1E0B0
:10072000FBE080818083E5E0FBE080818160808365
:10073000E0E0FBE080818160808308951F920F924A
:100740000FB60F9211240BB60F928F939F93AF9316
:10075000BF93EF93FF938091475290914852A0919D
:100760004952B0914A520196A11DB11D8093475242
:1007700090934852A0934952B0934A52E6E0FBE06E
:10078000808181608083FF91EF91BF91AF919F91B4
:100790008F910F900BBE0F900FBE0F901F9018956A
:1007A00088ED90E40E94F10181E08093E251E0E263
:1007B000F4E0128A168A1092520410929604109253
:1007C000B204089578941092200A1092210AE0E071
:1007D000FAE082E19AE786A397A380818A68808302
:1007E000828581608287808181608083089578948A
:1007F000E4E9F4E080818260808308951F920F9283
:100800000FB60F9211240BB60F92CF92DF92EF9298
:10081000FF922F933F934F935F936F937F938F93A9
:100820009F93AF93BF93EF93FF938091890484FFCD
:100830009EC0E9E8F4E08081806180838091880433
:1008400085FF14C08091C7519091C851A091C951A2
:10085000B091CA510196A11DB11D8093C7519093CB
:10086000C851A093C951B093CA5113C08091C751C8
:100870009091C851A091C951B091CA510197A10955
:10088000B1098093C7519093C851A093C951B093B7
:10089000CA518091BB519091BC518A30910514F599
:1008A000C090C351D090C451E090C551F090C65152
:1008B0004091C7515091C8516091C9517091CA512E
:1008C0004C0D5D1D6E1D7F1D4093C3515093C4514F
:1008D0006093C5517093C65101968093BB5190931C
:1008E000BC5145C01092BB511092BC516091C35194
:1008F0007091C4518091C5519091C6512AE030E069
:1009000040E050E00E942A2D822F932FA42FB52F74
:10091000C090BF51D090C051E090C151F090C251F1
:10092000C816D906EA06FB0624F481E08093BE517E
:100930000BC08C159D05AE05BF0524F482E08093A5
:10094000BE5102C01092BE512093BF513093C0518E
:100950004093C1515093C2511092C3511092C4514F
:100960001092C5511092C65181E08093BD51809183
:10097000890486FF08C081E08093D351E0E8F4E069
:10098000818580648187FF91EF91BF91AF919F91A5
:100990008F917F916F915F914F913F912F91FF9038
:1009A000EF90DF90CF900F900BBE0F900FBE0F9087
:1009B0001F9018959C01E0E0F0E1928191FDFDCF40
:1009C0008DE984BFE0E0F0E193E19083D901BC5E62
:1009D0006D937C9384BF108208959C01E0E0F0E168
:1009E000928191FDFDCF8DE984BFE0E0F0E193E1DC
:1009F0009083D901BC5E70E06D937C9384BF1082BC
:100A00000895209102100E94982F089520910210BD
:100A10000E94982F08958F929F92AF92BF92CF928B
:100A2000DF92EF92FF924B015C0184EE90E40E9412
:100A3000F101C0900A40D0900B40E0900C40F09043
:100A40000D402BED3FE049E450E4C701B6010E94A0
:100A5000022BA70196010E94022B20910E4030919B
:100A60000F4040911040509111400E94022B6B01A9
:100A70007C0189EF90E40E94F10144E050E0C7015D
:100A8000B6010E94430220E030E04AE754E4C70187
:100A9000B6010E94A32920E030E048EC52E40E9415
:100AA000022B9B01AC0160E070E08FE793E40E94B1
:100AB000A3296B017C0185E191E40E94F10142E0F0
:100AC00050E0C701B6010E944302A5019401C7018D
:100AD000B6010E94022B6B017C018FE191E40E9420
:100AE000F10142E050E0C701B6010E944302C70194
:100AF000B601FF90EF90DF90CF90BF90AF909F90A6
:100B00008F900895CF92DF92EF92FF926B017C015C
:100B100083E391E40E94F101C701B6010E940B0535
:100B20000E94152A6B017C0120E030E045E352E58C
:100B30000E94F90084E491E40E94F10185E392E5CA
:100B40000E94F101C701B601FF90EF90DF90CF90B6
:100B500008958F929F92AF92BF92CF92DF92EF92C1
:100B6000FF920F931F93CF93DF938C01FB016901D9
:100B70007A019B013695279536952795ABE7B4E129
:100B80000E94492DAC0156954795980136952795B9
:100B9000369527950E94492D9C0136952795EA01A7
:100BA000C21BD30B94E6929FB001939F700D11244A
:100BB000061B170B949F9001959F300D1124BF01C8
:100BC000621B730B6017710738F5601B710B645C57
:100BD0007F4F072E000C880B990B0E944D2A20E0B6
:100BE00030E040E752E40E94A3294B015C01BE01C2
:100BF000DD0F880B990B0E944D2A9B01AC01C501AA
:100C0000B4010E94322920E030E040E85FE30E9416
:100C100031294B015C011EC0601B710B072E000CBB
:100C2000880B990B0E944D2A20E030E040E752E407
:100C30000E94A3294B015C01BE01DD0F880B990BBB
:100C40000E944D2A9B01AC01C501B4010E943229CA
:100C50004B015C0185E591E40E94F10142E050E026
:100C6000C501B4010E944302A7019601C501B40168
:100C70000E94022B4B015C0182E691E40E94F1018B
:100C800042E050E0C501B4010E944302C501B40135
:100C90000E9482056093E7517093E8518093E95177
:100CA0009093EA51C701B6010E940B056B017C01CC
:100CB0008FE691E40E94F101A701960160E07AEBD2
:100CC0008BE59AE40E94A3290E94152A6B017C01FE
:100CD0000E943802C701B601DF91CF911F910F9199
:100CE000FF90EF90DF90CF90BF90AF909F908F904C
:100CF0000895CF92DF92EF92FF926B017C018DE716
:100D000091E40E94F10142E050E0C701B6010E9467
:100D10004302C701B6010E9482056093E7517093B8
:100D2000E8518093E9519093EA518BE891E40E9455
:100D3000F1016091E7517091E8518091E9519091F2
:100D4000EA510E943802FF90EF90DF90CF90089513
:100D50008F929F92AF92BF92CF92DF92EF92FF92CB
:100D60006B017C0149015A018DE791E40E94F10178
:100D700042E050E0C701B6010E944302C701B6013C
:100D80000E9482056093E7517093E8518093E95186
:100D90009093EA518BE891E40E94F1016091E75150
:100DA0007091E8518091E9519091EA510E94380286
:100DB000C501B4010E940B059B01AC0160E07AEB18
:100DC0008BE59AE40E94A3296B017C018FE691E4F4
:100DD0000E94F10142E050E0C701B6010E944302C7
:100DE000C701B601FF90EF90DF90CF90BF90AF901A
:100DF0009F908F900895E0E0F9E081E0858383E0A3
:100E000084830895E0E0F9E08BE0868381E08583C8
:100E100083818A6083838381816083830895CF93F4
:100E2000DF93C82FD62F809105098370833079F422
:100E300083ED91E40E94F10121E63AEEE0E0F9E071
:100E400085818370833019F421503109C9F785E019
:100E500080930509DD2329F0CC0FC160C0930709F9
:100E600003C0CC0FC093070980E69AEEE0E0F9E0FA
:100E7000258124FF06C0258126FD03C00197C1F707
:100E800002C0892B21F48DED91E40E94F101809143
:100E9000050982FF04C085EE91E40E94F101DF9113
:100EA000CF910895E7EEF3E03197F1F700C000002D
:100EB0008093080980E69AEEE0E0F9E0258124FFBE
:100EC00003C00197D9F702C0892B21F48DED91E47D
:100ED0000E94F1018091050983FD04C080910509FC
:100EE00082FF06C084E092E40E94F1010E94FB06AA
:100EF0000895CF93DF93C0E6DAEEE0E0F9E0858174
:100F0000882314F02197D9F78091050983FD04C047
:100F10008091050982FF06C088E192E40E94F101F8
:100F20000E94FB06CD2B21F48DED91E40E94F1018E
:100F300080910809DF91CF910895282F22952F7075
:100F400030E0A901440F551F220F331F220F331F1A
:100F5000220F331F240F351F8F70A901480F511D19
:100F6000CA010895CF93DF93D82FC62F60E089E69A
:100F70000E940F078D2F0E9452078C2F0E9452074C
:100F80000E94FB06DF91CF910895CF92DF92EF92FE
:100F9000FF920F931F93CF93DF93D82EF62E142F2B
:100FA000D22F67E080E00E94B2076CE081E00E94EF
:100FB000B20767E083E00E94B20760E084E00E942D
:100FC000B207CDECDC9E812D112486958695869501
:100FD000282F220F922F990F990F920F6D2D691BB9
:100FE00090E1899F600D112486E00E94B207FC9E6B
:100FF000812D1124869586958695282F220F922F74
:10100000990F990F920F6F2D691B90E1899F600DC9
:10101000112487E00E94B2071C9F812D1124869520
:1010200086958695282F220F922F990F990F920F50
:10103000612F691B90E1899F600D112488E00E9457
:10104000B207DC9F812D1124869586958695282FE1
:10105000220F922F990F990F920F6D2F691B90E11C
:10106000899F600D112489E00E94B2070C9F812D99
:101070001124869586958695282F220F922F990FF9
:10108000990F920F091B602F90E1899F600D112429
:101090008AE00E94B207EC9E812D112486958695E8
:1010A0008695282F220F922F990F990F920FE91AE8
:1010B0006E2D90E1899F600D11248BE00E94B20794
:1010C000CC9EC12D1124C695C695C6959C2F990F0F
:1010D000892F880F880F890FC81A6C2D80E1C89F4F
:1010E000600D11248CE00E94B20760E087E10E944D
:1010F000B20768E582E00E94B20762E081E00E94E8
:10110000B2078FE097E20197F1F700C000006CE0B2
:1011100081E00E94B207DF91CF911F910F91FF9064
:10112000EF90DF90CF900895CF93C82F0E94FB06D9
:1011300060E089E60E940F078C2F0E9452070E94F0
:10114000FB0661E089E60E940F070E947907C82F1D
:10115000E0E0F9E08481846084830E94FB068C2FA8
:10116000CF9108951F920F920FB60F9211240BB6D4
:101170000F922F933F934F935F936F937F938F9330
:101180009F93AF93BF93EF93FF938091C90482FF26
:101190000CC0E9ECF4E080818460808380E392E419
:1011A0000E94F10181E08093BA51FF91EF91BF91CC
:1011B000AF919F918F917F916F915F914F913F91EF
:1011C0002F910F900BBE0F900FBE0F901F90189590
:1011D000EF92FF920F931F93CF93DF93CDB7DEB7BC
:1011E000A397CDBFDEBF19821A82FE01339682E13A
:1011F000DF011D928A95E9F788E00E9494080E9419
:101200009D07BC0180E090E020E030E0AE01415E4F
:101210005F4F0E94F90087EE93E00197F1F700C05D
:10122000000087E00E9494080E949D07BC0180E0B6
:1012300090E020E030E0AE01465E5F4F0E94F90092
:10124000A7EEB3E01197F1F700C0000086E00E941E
:1012500094080E949D07BC0180E090E020E030E00F
:10126000AE014B5E5F4F0E94F90087EE93E001975D
:10127000F1F700C00000BE01615E7F4F8E010F5F7D
:101280001F4FC8010E94862FF80101900020E9F746
:1012900031970F2EFAE3EF2EF12CF02DE082F18240
:1012A000BE01665E7F4FC8010E94862FF801019043
:1012B0000020E9F73197E082F182BE016B5E7F4F3B
:1012C000C8010E94862FC8010E94F101A396CDBFDC
:1012D000DEBFDF91CF911F910F91FF90EF900895A6
:1012E000CF93DF93C0E5D0E088818E7F8883F89428
:1012F0008FEC97E00197F1F700C0000088E00E94B2
:1013000094080E949D078093225287E00E949408CF
:101310000E949D078093205286E00E9494080E94BC
:101320009D0780931F5289E00E9494080E949D07A8
:1013300080931E528AE00E9494080E949D07809329
:1013400046528BE00E9494080E949D0780931D5294
:101350008CE00E9494080E949D07809330528881FF
:101360008160888378948FEC97E00197F1F700C053
:101370000000DF91CF9108951F920F920FB60F9248
:1013800011240BB60F922F933F934F935F936F935C
:101390007F938F939F93AF93BF93EF93FF9380912E
:1013A000475290914852A0914952B0914A5240916F
:1013B000CB515091CC516091CD517091CE51841B45
:1013C000950BA60BB70B89389341A105B10530F0F9
:1013D0008091E251863011F40E94D0030E9470097E
:1013E000E0E0FAE0838581608387FF91EF91BF9110
:1013F000AF919F918F917F916F915F914F913F91AD
:101400002F910F900BBE0F900FBE0F901F9018954D
:10141000CF93DF93EC01E0E0F9E081E08583848104
:101420008860848360E080E50E940F07CE018827F2
:101430009F70892F0E9452078C2F0E94520761E0F3
:1014400080E50E940F070E947907C82F0E94FB06C3
:1014500087EE93E00197F1F700C000008C2FDF9139
:10146000CF9108950F931F93CF938C0101960E9403
:10147000080AC82FC8010E94080A2C2F30E0322F1A
:101480002227A901482BCA01CF911F910F910895DE
:101490001F93CF93DF93EC01162F60E080E50E944D
:1014A0000F07CE0188279F70892F0E9452078C2F2B
:1014B0000E945207812F0E94520787EE93E0019706
:1014C000F1F700C000000E94FB0687E893E1019756
:1014D000F1F700C00000DF91CF911F9108951F9395
:1014E000CF93DF93EC01172F0E94480A612FCE01A2
:1014F00001960E94480ADF91CF911F9108950E94A2
:10150000320A9C013695279536952795ABE7B4E1CD
:101510000E94492D969587959C012150310981E0C3
:101520002F31310508F080E008950F931F93CF937A
:10153000DF93CDB7DEB72F97CDBFDEBF8C01809193
:101540001E4090911F4089839A83FE0133968DE05F
:10155000DF011D928A95E9F782E40E94E901C80142
:1015600001960E94320ABC0180E090E024E030E065
:101570004BEE51E50E94F9006BEE71E5CE0101964C
:101580000E94862FC80103960E94080A682F70E007
:1015900080E090E022E030E04BEE51E50E94F9005F
:1015A0006BEE71E5CE0101960E94862FC80104966C
:1015B0000E94080A682F70E080E090E021E030E0AF
:1015C0004BEE51E50E94F9006BEE71E5CE010196FC
:1015D0000E94862FCE0101960E941602C801059630
:1015E0002F96CDBFDEBFDF91CF911F910F91089550
:1015F0000F931F93CF93DF93CDB7DEB72F97CDBF58
:10160000DEBF8C0180911E4090911F4089839A8398
:10161000FE0133968DE0DF011D928A95E9F78AE598
:101620000E94E901C80101960E94320ABC0180E0D3
:1016300090E024E030E04BEE51E50E94F9006BEEC3
:1016400071E5CE0101960E94862FC80103960E9483
:10165000320ABC0180E090E024E030E04BEE51E53E
:101660000E94F9006BEE71E5CE0101960E94862F73
:10167000C80105960E94320ABC0180E090E025E096
:1016800030E04BEE51E50E94F9006BEE71E5CE01C2
:1016900001960E94862FCE0101960E941602C80173
:1016A00007962F96CDBFDEBFDF91CF911F910F918F
:1016B00008950F931F93CF93DF93CDB7DEB72F9786
:1016C000CDBFDEBF8C0180911E4090911F40898369
:1016D0009A83FE0133968DE0DF011D928A95E9F72A
:1016E00087E40E94E901C80101960E94320ABC0108
:1016F00080E090E024E030E04BEE51E50E94F900FC
:101700006BEE71E5CE0101960E94862FC80103960B
:101710000E94320ABC0180E090E023E030E04BEE12
:1017200051E50E94F9006BEE71E5CE0101960E9431
:10173000862FC80105960E94080A682F70E080E095
:1017400090E021E030E04BEE51E50E94F9006BEEB5
:1017500071E5CE0101960E94862FCE0101960E946E
:101760001602C80106962F96CDBFDEBFDF91CF913E
:101770001F910F9108950F931F93CF93DF93CDB7D0
:10178000DEB76E97CDBFDEBF8C0180911E40909179
:101790001F4089839A83FE0133968CE1DF011D92FD
:1017A0008A95E9F787E50E94E901C80101960E9440
:1017B000320ABC0180E090E024E030E04BEE51E5DD
:1017C0000E94F9006BEE71E5CE0101960E94862F12
:1017D000C80103960E94080A682F70E080E090E03C
:1017E00022E030E04BEE51E50E94F9006BEE71E52E
:1017F000CE0101960E94862FC80104960E94080A15
:10180000682F70E080E090E021E030E04BEE51E5A1
:101810000E94F9006BEE71E5CE0101960E94862FC1
:10182000C80105960E94080A682F70E080E090E0E9
:1018300023E030E04BEE51E50E94F9006BEE71E5DC
:10184000CE0101960E94862FC80106960E94080AC2
:10185000682F70E080E090E023E030E04BEE51E54F
:101860000E94F9006BEE71E5CE0101960E94862F71
:10187000C80107960E94080A682F70E080E090E097
:1018800023E030E04BEE51E50E94F9006BEE71E58C
:10189000CE0101960E94862FC80108960E94080A70
:1018A000682F70E080E090E023E030E04BEE51E5FF
:1018B0000E94F9006BEE71E5CE0101960E94862F21
:1018C000C80109960E94080A682F70E080E090E045
:1018D00023E030E04BEE51E50E94F9006BEE71E53C
:1018E000CE0101960E94862FC8010A960E94080A1E
:1018F000682F70E080E090E023E030E04BEE51E5AF
:101900000E94F9006BEE71E5CE0101960E94862FD0
:10191000CE0101960E941602C8010B966E96CDBFAD
:10192000DEBFDF91CF911F910F9108958F929F920B
:10193000AF92BF92CF92DF92EF92FF920F931F93DD
:10194000CF93DF93882399F086E190E00E94010510
:10195000EC0188E190E00E9401057C0100E01CE0C0
:101960000F2ECC24CA94FFE0DF2EF02D12C080E1B0
:1019700090E00E940105EC0182E190E00E940105E7
:101980007C0100E010E00F2ECC24CA94FBE0DF2E97
:10199000F02DCE15DF052CF0CC16DD060CF067C05F
:1019A000CBC0CE010E947F0A882369F1CE010E943C
:1019B000320A6C01CE0102960E94320A8C0183E247
:1019C0000E94E9018FE30E94E901B601DD0C880B5A
:1019D000990B24E030E04BEE51E50E94F9008BEECC
:1019E00091E50E941602B801110F880B990B24E0B3
:1019F00030E04BEE51E50E94F9008BEE91E50E943C
:101A0000160224962FC0CE010E94080A873409F1DD
:101A100018F4823431F025C0873599F08A3549F0C1
:101A200020C08CE20E94E901CE010E94950AEC01DF
:101A300019C08CE20E94E901CE010E94F80AEC0173
:101A400011C08CE20E94E901CE010E94BB0BEC01A7
:101A500009C08CE20E94E901CE010E94590BEC0101
:101A600001C02196CE15DF050CF49BCFD0C0CE016E
:101A70000E947F0A882369F1CE010E94320A5C012C
:101A8000CE0102960E94320A4C0183E20E94E901D3
:101A90008FE30E94E901B501BB0C880B990B24E090
:101AA00030E04BEE51E50E94F9008BEE91E50E948B
:101AB0001602B401990C880B990B24E030E04BEE30
:101AC00051E50E94F9008BEE91E50E9416022496E2
:101AD0002FC0CE010E94080A873409F118F482341D
:101AE00031F025C0873599F08A3549F020C08CE265
:101AF0000E94E901CE010E94950AEC0119C08CE216
:101B00000E94E901CE010E94F80AEC0111C08CE2AA
:101B10000E94E901CE010E94BB0BEC0109C08CE2DE
:101B20000E94E901CE010E94590BEC0101C02196EF
:101B3000CC16DD060CF09BCFE016F1060CF467C066
:101B4000C8010E947F0A882371F1C8010E94320AED
:101B50006C01C80102960E94320AEC0183E20E94E5
:101B6000E9018FE30E94E901B601DD0C880B990BB6
:101B700024E030E04BEE51E50E94F9008BEE91E558
:101B80000E941602BE01DD0F880B990B24E030E0A5
:101B90004BEE51E50E94F9008BEE91E50E94160292
:101BA0000C5F1F4F30C0C8010E94080A873409F13A
:101BB00018F4823431F025C0873599F08A3549F020
:101BC00020C08CE20E94E901C8010E94950A8C01A4
:101BD0001AC08CE20E94E901C8010E94F80A8C0137
:101BE00012C08CE20E94E901C8010E94BB0B8C016B
:101BF0000AC08CE20E94E901C8010E94590B8C01C5
:101C000002C00F5F1F4FE016F1060CF099CFDF9175
:101C1000CF911F910F91FF90EF90DF90CF90BF90E9
:101C2000AF909F908F900895F89480E00E94960C5A
:101C300078940895CF92DF92EF92FF920F931F93C3
:101C4000CF93DF93CDB7DEB76297CDBFDEBF7C0108
:101C500080911E4090911F4089839A83FE013396A4
:101C600023E0DF011D922A95E9F78E839F83359645
:101C700089E0DF011D928A95E9F78FE290E0898B78
:101C80009A8BC7010E94320A8C019C0136952795D8
:101C900036952795ABE7B4E10E94492D6C01D694A7
:101CA000C794B60180E090E022E030E0AE014F5FE3
:101CB0005F4F0E94F900BE016F5F7F4FCE01069615
:101CC0000E94862FBE016F5E7F4FCE0106960E9456
:101CD000862F24E62C9DC0012D9D900D1124B80166
:101CE000681B790B80E090E022E030E0AE014F5FAE
:101CF0005F4F0E94F900BE016F5F7F4FCE010696D5
:101D00000E94862FBE016F5E7F4FCE0106960E9415
:101D1000862FC70102960E94320ABC0180E090E043
:101D200024E030E0AE014F5F5F4F0E94F900BE013A
:101D30006F5F7F4FCE0106960E94862FBE016A5FBD
:101D40007F4F8FEA91E50E94912FC701049662961A
:101D5000CDBFDEBFDF91CF911F910F91FF90EF902C
:101D6000DF90CF900895CF92DF92EF92FF920F9382
:101D70001F93CF93DF93CDB7DEB72597CDBFDEBFDF
:101D80007C0189E00E94E90180911E4090911F40F2
:101D900089839A83FE01339683E0DF011D928A9541
:101DA000E9F782E40E94E90189E00E94E901C701A4
:101DB00001960E94320A8C019C0136952795369532
:101DC0002795ABE7B4E10E94492D6C01D694C794E6
:101DD000B60180E090E022E030E0AE014F5F5F4F5F
:101DE0000E94F900CE0101960E94F1018AE30E944F
:101DF000E90124E62C9DC0012D9D900D1124B80110
:101E0000681B790B80E090E022E030E0AE014F5F8C
:101E10005F4F0E94F900CE0101960E94F10189E016
:101E20000E94E901C70103960E94080A682F70E02A
:101E300080E090E022E030E0AE014F5F5F4F0E9413
:101E4000F900CE0101960E94F10185E50E94E901A9
:101E500089E00E94E90187010B5F1F4FC7010496CB
:101E60000E94080A813029F48FE492E40E94F10173
:101E700004C084E592E40E94F101C8012596CDBF1B
:101E8000DEBFDF91CF911F910F91FF90EF90DF9018
:101E9000CF900895BF92CF92DF92EF92FF920F936F
:101EA0001F93CF93DF9300D01F92CDB7DEB77C0195
:101EB00080912D4090912E40A0912F4089839A834C
:101EC000AB8389E00E94E9018AE50E94E90189E08B
:101ED0000E94E901C70101960E94320A8C019C010F
:101EE0003695279536952795ABE7B4E10E94492DA5
:101EF0006C01D694C794B60180E090E022E030E017
:101F0000AE014F5F5F4F0E94F900CE0101960E9423
:101F1000F1018AE30E94E9010F2EF4E6BF2EF02DB5
:101F2000BC9CC001BD9C900D1124B801681B790BAD
:101F300080E090E022E030E0AE014F5F5F4F0E9412
:101F4000F900CE0101960E94F10189E00E94E901A9
:101F5000C70103960E94320A8C019C013695279591
:101F600036952795ABE7B4E10E94492D6C01D694D4
:101F7000C794B60180E090E022E030E0AE014F5F10
:101F80005F4F0E94F900CE0101960E94F1018AE3A1
:101F90000E94E901BC9CC001BD9C900D1124B801B8
:101FA000681B790B80E090E022E030E0AE014F5FEB
:101FB0005F4F0E94F900CE0101960E94F10189E075
:101FC0000E94E901C70105960E94320ABC0180E027
:101FD00090E00E943802C70106962396CDBFDEBF6F
:101FE000DF91CF911F910F91FF90EF90DF90CF90F5
:101FF000BF900895CF92DF92EF92FF920F931F93BD
:10200000CF93DF93CDB7DEB72597CDBFDEBF7C0181
:1020100080911E4090911F4089839A83FE013396E0
:1020200083E0DF011D928A95E9F789E00E94E901CA
:1020300087E40E94E90189E00E94E901C701019655
:102040000E94320A8C019C0136952795369527957A
:10205000ABE7B4E10E94492D6C01D694C794B60158
:1020600080E090E022E030E0AE014F5F5F4F0E94E1
:10207000F900CE0101960E94F1018AE30E94E90174
:1020800024E62C9DC0012D9D900D1124B801681BE4
:10209000790B80E090E022E030E0AE014F5F5F4FCF
:1020A0000E94F900CE0101960E94F10189E00E9490
:1020B000E901C70103960E94320ABC0180E090E06A
:1020C00023E030E0AE014F5F5F4F0E94F900CE0188
:1020D00001960E94F10189E00E94E90187010A5FEF
:1020E0001F4FC70105960E94080A90E0009729F447
:1020F0008AE592E40E94F1010EC08130910529F435
:1021000082E692E40E94F10106C0029721F485E67E
:1021100092E40E94F101C8012596CDBFDEBFDF9198
:10212000CF911F910F91FF90EF90DF90CF90089586
:10213000CF92DF92EF92FF920F931F93CF93DF9393
:1021400000D000D0CDB7DEB78C01809130409091A7
:102150003140A0913240B091334089839A83AB8360
:10216000BC8389E00E94E90187E50E94E90189E0DA
:102170000E94E901C80101960E94320A7C019C017B
:102180003695279536952795ABE7B4E10E94492D02
:102190006C01D694C794B60180E090E022E030E074
:1021A000AE014F5F5F4F0E94F900CE0101960E9481
:1021B000F1018AE30E94E90124E62C9DC0012D9DD6
:1021C000900D1124B701681B790B80E090E022E0AC
:1021D00030E0AE014F5F5F4F0E94F900CE010196E3
:1021E0000E94F10189E00E94E901C80103960E9462
:1021F000080A682F70E080E090E022E030E0AE0155
:102200004F5F5F4F0E94F900CE0101960E94F101DD
:1022100085E50E94E90189E00E94E901780185E0F5
:10222000E80EF11CC80104960E94080A90E000978D
:1022300029F484E592E40E94F10106C0019721F49B
:102240008FE492E40E94F10189E00E94E901C70154
:102250000E94080A682F70E080E090E023E030E000
:10226000AE014F5F5F4F0E94F900CE0101960E94C0
:10227000F10189E00E94E901C80106960E94080A5E
:10228000682F70E080E090E023E030E0AE014F5F27
:102290005F4F0E94F900CE0101960E94F10189E092
:1022A0000E94E901C80107960E94080A682F70E0A1
:1022B00080E090E023E030E0AE014F5F5F4F0E948E
:1022C000F900CE0101960E94F10189E00E94E90126
:1022D000C80108960E94080A682F70E080E090E02C
:1022E00023E030E0AE014F5F5F4F0E94F900CE0166
:1022F00001960E94F10189E00E94E901C801099656
:102300000E94080A682F70E080E090E023E030E04F
:10231000AE014F5F5F4F0E94F900CE0101960E940F
:10232000F10189E00E94E901C8010A960E94080AA9
:10233000682F70E080E090E023E030E0AE014F5F76
:102340005F4F0E94F900CE0101960E94F101C80181
:102350000B962496CDBFDEBFDF91CF911F910F91D9
:10236000FF90EF90DF90CF900895EF92FF920F9340
:102370001F93CF93DF9380E190E00E940105EC0171
:1023800082E190E00E9401058C01C817D9072CF06A
:10239000C1158CE0D807ECF17DC0CE010E947F0A08
:1023A000882329F0CE010E941A0EEC012EC0CE0126
:1023B0000E94080A8735E1F08A3571F0823421F5F0
:1023C0008AE00E94E9018FEA91E50E94F101CE01C5
:1023D0000E94B30EEC0119C08AE00E94E9018FEA65
:1023E00091E50E94F101CE010E944A0FEC010DC05F
:1023F0008AE00E94E9018FEA91E50E94F101CE0195
:102400000E949810EC0101C02196C017D1072CF250
:1024100083C00F2EFFEAEF2EF1E5FF2EF02DCE0147
:102420000E947F0A882339F0F7011082CE010E94B2
:102430001A0EEC012BC0CE010E94080A8735D1F09C
:102440008A3569F0823409F58AE00E94E901C70102
:102450000E94F101CE010E94B30EEC0117C08AE088
:102460000E94E901C7010E94F101CE010E944A0FBA
:10247000EC010CC08AE00E94E901C7010E94F10151
:10248000CE010E949810EC0101C02196C115FCE01C
:10249000DF072CF211230CF43FC0C0E0D0E0CE01E6
:1024A0000E947F0A882339F01092AF51CE010E941A
:1024B0001A0EEC012EC0CE010E94080A8735E1F009
:1024C0008A3571F0823421F58AE00E94E9018FEAB1
:1024D00091E50E94F101CE010E94B30EEC0119C0FA
:1024E0008AE00E94E9018FEA91E50E94F101CE01A4
:1024F0000E944A0FEC010DC08AE00E94E9018FEAB8
:1025000091E50E94F101CE010E949810EC0101C0FA
:1025100021960C171D071CF6DF91CF911F910F918B
:10252000FF90EF900895EF92FF920F931F93CF9338
:10253000DF9386E190E00E940105EC0188E190E0E4
:102540000E9401058C01C817D9072CF0C11580E144
:10255000D8070CF147C0CE010E947F0A882329F0DA
:10256000CE010E941A0EEC0112C0CE010E94080A90
:10257000873461F48AE00E94E9018FEA91E50E94C4
:10258000F101CE010E94FA0FEC0101C02196C017A3
:10259000D1070CF34EC00F2EFFEAEF2EF1E5FF2E10
:1025A000F02DCE010E947F0A882339F0F7011082B6
:1025B000CE010E941A0EEC0111C0CE010E94080A41
:1025C000873459F48AE00E94E901C7010E94F101B1
:1025D000CE010E94FA0FEC0101C02196C115F0E175
:1025E000DF07FCF201158CE018071CF1C0E0DCE00D
:1025F000CE010E947F0A882339F01092AF51CE019C
:102600000E941A0EEC0112C0CE010E94080A873403
:1026100061F48AE00E94E9018FEA91E50E94F101EC
:10262000CE010E94FA0FEC0101C021960C171D0784
:10263000FCF6DF91CF911F910F91FF90EF900895DD
:102640007F928F929F92AF92BF92CF92DF92EF9242
:10265000FF920F931F93CF93DF93782E8823B1F0CF
:1026600086E190E00E9401058C0188E190E00E94E3
:1026700001056C010F2E812CFCE09F2EF02D0F2EFA
:10268000AA24AA94FFE0BF2EF02D12C080E190E0B2
:102690000E9401058C0182E190E00E9401056C011D
:1026A000812C912C0F2EAA24AA94FBE0BF2EF02D92
:1026B0000C151D055CF0A016B1060CF060C0E80119
:1026C0000F2EF6E0EF2EF12CF02D86C0E8010F2E34
:1026D000F6E0EF2EF12CF02DCE010E947F0A882328
:1026E00029F0249681E0E81AF10817C0CE010E9473
:1026F000080A873479F018F4823431F00DC0873538
:1027000039F08A3519F008C0259607C0279605C00C
:102710002B9603C0269601C02196CC15DD051CF42E
:10272000E114F104C9F624978CE692E40E94F101C9
:10273000B801012E000C880B990B0E9438028AE721
:1027400092E40E94F101BE010D2E000C880B990B42
:102750000E94380282E992E40E94F1010C171D07E1
:102760004CF46FEFC8010E94480A0F5F1F4F0C170F
:102770001D07BCF386EA92E40E94F101B5C0E801AE
:102780000F2EF6E0EF2EF12CF02DCE010E947F0AE5
:10279000882329F0249681E0E81AF10817C0CE01B9
:1027A0000E94080A873479F018F4823431F00DC0A1
:1027B000873539F08A3519F008C0259607C0279665
:1027C00005C02B9603C0269601C02196AC16BD0607
:1027D0001CF0E114F104C9F688EB92E40E94F101C7
:1027E000B7010F2C000C880B990B0E94380224971C
:1027F0008CE692E40E94F101B801012E000C880BD6
:10280000990B0E9438028AE792E40E94F101BE010E
:102810000D2E000C880B990B0E94380282E992E47D
:102820000E94F1010C171D074CF46FEFC8010E94C4
:10283000480A0F5F1F4F0C171D07BCF386EA92E48E
:102840000E94F101E114F10409F44EC0C814D90446
:102850009CF1C4010E947F0A882339F084E0880E2D
:10286000911C81E0E81AF10821C0C4010E94080A05
:102870008734A9F018F4823431F015C0873559F047
:102880008A3529F010C085E0880E911C0FC087E0C2
:10289000880E911C0BC08BE0880E911C07C086E04F
:1028A000880E911C03C08FEF881A980AC814D904A7
:1028B0001CF0E114F10469F68EEE92E40E94F1013D
:1028C000E40124971C161D065CF400E010E06FEF95
:1028D000C8010E94480A0F5F1F4F0C171D07BCF369
:1028E0008BE093E40E94F10181E293E40E94F10104
:1028F000BE010D2E000C880B990B0E9438028EE34E
:1029000093E40E94F101CE010E94320ABC0180E0F2
:1029100090E00E943802772031F0BE0186E190E01D
:102920000E94DA0405C0BE0180E190E00E94DA0452
:1029300088E693E40E94F101DF91CF911F910F91FE
:10294000FF90EF90DF90CF90BF90AF909F908F90CF
:102950007F900895BF92CF92DF92EF92FF920F93F4
:102960001F93CF93DF936C01B62E662389F086E127
:1029700090E00E9401058C0188E190E00E94010531
:10298000EC010F2EEE24EA94FFE0FF2EF02D10C094
:1029900080E190E00E9401058C0182E190E00E94BC
:1029A0000105EC010F2EEE24EA94FBE0FF2EF02D42
:1029B00085E793E40E941602B801012E000C880BF3
:1029C000990B0E94380285E893E40E941602BE012A
:1029D0000D2E000C880B990B0E9438020C171D0756
:1029E0000CF5EC1AFD0ACE14DF042CF483E993E411
:1029F0000E94F10128C08B2D0E94201384EA93E4E9
:102A00000E94F101BB2039F060E07CE088E190E0B9
:102A10000E94DA0418C060E070E082E190E00E9459
:102A2000DA0411C08FEB93E40E94F1010C1B1D0B23
:102A3000C016D1062CF483E993E40E94F10103C08F
:102A40008B2D0E942013DF91CF911F910F91FF904A
:102A5000EF90DF90CF90BF900895EF92FF920F9389
:102A60001F93CF93DF93EC017B014115510509F0D2
:102A700065C082E190E00E940105019699F4BE01D3
:102A800080E090E00E946F0A87EE93E00197F1F7F3
:102A900000C00000B70182E090E00E946F0A04E0ED
:102AA00010E02FC081EF93E40E94F10160E084E028
:102AB00090E00E94AA1482E190E00E9401058C013E
:102AC00084E190E00E940105C817D90729F481E14B
:102AD00094E40E94F10115C08EE394E40E94F10198
:102AE000BE01C8010E946F0A87EE93E00197F1F7DB
:102AF00000C00000B701C80102960E946F0A0C5F77
:102B00001F4FB80182E190E00E94DA0487EE93E063
:102B10000197F1F700C00000BE0184E190E00E943F
:102B2000DA04B80180E090E00E9438028DE594E478
:102B30000E94F1018AE00E94E90177C0413051050D
:102B400009F073C088E190E00E9401058C0189E7DB
:102B500094E40E94F101B80180E090E00E94380204
:102B60000F3F1F4FB9F483E994E40E94F101BE01C5
:102B700080E09CE00E946F0A87EE93E00197F1F7F6
:102B800000C00000B70182E09CE00E946F0A04E0F0
:102B90001CE02FC081EF93E40E94F10161E084E02A
:102BA00090E00E94AA1482E190E00E9401058C014D
:102BB0008AE190E00E940105C817D90729F481E154
:102BC00094E40E94F10115C08EE394E40E94F101A7
:102BD000BE01C8010E946F0A87EE93E00197F1F7EA
:102BE00000C00000B701C80102960E946F0A0C5F86
:102BF0001F4FB80188E190E00E94DA0487EE93E06D
:102C00000197F1F700C00000BE018AE190E00E9448
:102C1000DA04B80180E090E00E9438028DE594E487
:102C20000E94F1018AE00E94E90187EE93E001979A
:102C3000F1F700C00000DF91CF911F910F91FF903D
:102C4000EF900895EF92FF920F931F93CF93DF932E
:102C50007C01062F142F82E190E00E94010560E0C4
:102C600085E090E00E94AA1482E190E00E940105B4
:102C7000EC0186EB94E40E94F10162E4CE010E9433
:102C8000480AB701CE0101960E946F0A602FCE015B
:102C900003960E94480A612FCE0104960E94480ABA
:102CA000259687EE93E00197F1F700C00000BE0182
:102CB00082E190E00E94DA0480ED94E40E94F10148
:102CC000BE0180E090E00E9438028AE00E94E901A3
:102CD000DF91CF911F910F91FF90EF900895CF92C8
:102CE000DF92EF92FF920F931F93CF93DF936C01CC
:102CF0007B018A0182E190E00E94010560E087E0AB
:102D000090E00E94AA1482E190E00E940105EC018B
:102D10006AE50E94480AB601CE0101960E946F0A38
:102D2000B701CE0103960E946F0AB801CE01059645
:102D30000E946F0A279687EE93E00197F1F700C093
:102D40000000BE0182E190E00E94DA0481E095E497
:102D50000E94F101BE0180E090E00E9438028AE00A
:102D60000E94E901DF91CF911F910F91FF90EF90A9
:102D7000DF90CF9008956F927F928F929F92AF9243
:102D8000BF92CF92DF92EF92FF920F931F93CF9358
:102D9000DF93CDB7DEB73C01B62ED42EF22E902EA7
:102DA00082E190E00E94010560E08BE090E00E94EB
:102DB000AA1482E190E00E9401058C0167E50E945F
:102DC000480AB301C80101960E946F0A6B2DC80121
:102DD00003960E94480A6D2DC80104960E94480A75
:102DE0006F2DC80105960E94480A692DC8010696F4
:102DF0000E94480A6E2DC80107960E94480A6C2D51
:102E0000C80108960E94480A6A2DC80109960E94C6
:102E1000480A682DC8010A960E94480A055F1F4F9C
:102E200087EE93E00197F1F700C00000B80182E15E
:102E300090E00E94DA048BE295E40E94F101B8016F
:102E400080E090E00E9438028AE00E94E901DF9170
:102E5000CF911F910F91FF90EF90DF90CF90BF9097
:102E6000AF909F908F907F906F9008951F93CF9316
:102E7000DF93162FD42FC22F682F80E090E00E949E
:102E8000ED04612F81E090E00E94ED046D2F82E05F
:102E900090E00E94ED046C2F70E083E090E00E94CF
:102EA000DA04DF91CF911F910895CF92DF92EF92D4
:102EB000FF92CF93DF931092D8511616170618067B
:102EC000190634F13AC08091D851882329F1109223
:102ED000D85180E795E40E94F1011092D8511092E8
:102EE000D6518FE097E20197F1F700C00000809182
:102EF000D651811105C08091D851882391F304C027
:102F00008091D851882341F084E08093235215C0EA
:102F10006B017C01C0E0D0E087EE93E00197F1F710
:102F200000C000002196CE010D2E000CAA0BBB0B99
:102F30008C159D05AE05BF0534F2DF91CF91FF9052
:102F4000EF90DF90CF9008952F923F924F925F9233
:102F50006F927F928F929F92AF92BF92CF92DF92A9
:102F6000EF92FF920F931F93CF93DF932B013C01BE
:102F7000942E822E9091465284E600911D5210E0CC
:102F8000899F000D111D1124A0903052B12C20E317
:102F9000A21A28EFB20A9091225220902052312C8E
:102FA000899F200C311C1124882029F082EB95E4A4
:102FB0000E94F10104C08FEB95E40E94F101911091
:102FC00091C08DEC95E40E94F101C301B2010E9411
:102FD00079068DED95E40E94F1010F2EF3E0CF2EDE
:102FE000D12CE12CF12CF02DC701B6010E94380242
:102FF0008FEF94E32CE0815090402040E1F700C037
:10300000000081E0C81AD108E108F10869F783E0FF
:1030100096E40E94F101E0E8F4E084818A60848310
:1030200088E0809321528091E7519091E851A091DE
:10303000E951B091EA51181619061A061B060CF050
:1030400045C040E050E0BA014F5F5F4F6F4F7F4F88
:1030500084818F6084838FE99FE00197F1F700C03E
:10306000000084818E7F84838FE99FE00197F1F7D0
:1030700000C0000084818B7F84838FE99FE00197EB
:10308000F1F700C000008481816084838FE99FE0B4
:103090000197F1F700C000008481807F84839FEF57
:1030A00029EF80E0915020408040E1F700C000000F
:1030B0008091E7519091E851A091E951B091EA5186
:1030C000481759076A077B070CF4BECFE0E8F4E025
:1030D00086818F6086831092215289E096E40E9457
:1030E000F101DCC084E296E40E94F1018FE296E4F3
:1030F0000E94F10142E050E0C301B2010E9443028C
:103100008CE79AE40E94F1012BEE38EA4AEA5DE38B
:10311000C301B2010E94A3296B017C0142E050E08F
:103120000E944302A7019601C301B2010E94A806B2
:103130006B017C0120E030E040E851E40E949E29D0
:10314000882364F48BE396E40E94F1010F2EC12CD6
:10315000D12CF0E8EF2EF1E4FF2EF02D20E030E04E
:1031600040E05FE3C701B6010E94322920E030E071
:1031700040EA51E40E9431290E941C2A0E946902FF
:103180008DED95E40E94F1010F2EF3E0CF2ED12CAE
:10319000E12CF12CF02DC701B6010E9438029FEFFF
:1031A00024E38CE0915020408040E1F700C0000013
:1031B00091E0C91AD108E108F10869F783E096E4C3
:1031C0000E94F101E0E8F4E084818A60848388E071
:1031D000809321521092CF518091E7519091E85104
:1031E000A091E951B091EA51181619061A061B066A
:1031F0000CF054C0C12CD12C7601C0E8D4E02FEFE4
:10320000C21AD20AE20AF20AC701B6010E943802C3
:103210008C818F608C838FE99FE00197F1F700C06C
:1032200000008C818E7F8C838FE99FE00197F1F7FE
:1032300000C000008C818B7F8C838FE99FE0019719
:10324000F1F700C000008C8181608C838FE99FE0E2
:103250000197F1F700C000008C81807F8C83809102
:10326000CF5181110BC087EE93E00197F1F700C0B9
:10327000000088958091CF518823A9F31092CF51F7
:103280008091E7519091E851A091E951B091EA51B4
:10329000C816D906EA06FB060CF4B1CFE0E4F1E06B
:1032A00080818E7F80831092215289E096E40E9473
:1032B000F10184E696E40E94F10140E050E0B5019E
:1032C000C8010E942D15882009F442C08EE796E4BB
:1032D0000E94F1016091D9517091DA518091DB51D6
:1032E0009091DC510E941C2A862E609116407091AC
:1032F000174080911840909119400E941C2AE62E98
:1033000060911A4070911B4080911C4090911D402B
:103310000E941C2A062F6091DD517091DE51809130
:10332000DF519091E0510E941C2AC62FC301B201C7
:103330000E941C2AA0901240C09014402C2F492DAE
:10334000C1010E94BB168AE896E40E94F10110C0F8
:1033500089EA96E40E94F101C301B2010E941C2A8D
:10336000492DC1010E94221686EB96E40E94F101CC
:10337000DF91CF911F910F91FF90EF90DF90CF9051
:10338000BF90AF909F908F907F906F905F904F9085
:103390003F902F9008951092D8511092D7511092CB
:1033A000D6511092D5511092D4511092D351089504
:1033B000AF92BF92CF92DF92EF92FF920F931F9343
:1033C000CF93DF937C016B018A011092D751C0E04B
:1033D000D0E0A62EBD2C8091D451882381F010928C
:1033E000D451C00FD11FEC16FD060CF4E701BE014D
:1033F0000D2E000C880B990B0E94380214C080918E
:10340000D351882381F01092D351C01BD10BCC151E
:10341000DD0514F4CA2DDB2DBE010D2E000C880B2A
:10342000990B0E9438028FE097E20197F1F700C0F4
:10343000000088958091D751882369F2CE01DF91F1
:10344000CF911F910F91FF90EF90DF90CF90BF90A1
:10345000AF9008954F925F926F927F928F929F925A
:10346000AF92BF92CF92DF92EF92FF920F931F9392
:10347000CF93DF93B62EA72E982E892E722E632E11
:10348000542E452E670178011092D751022F132F29
:10349000D42FC52F8091D451882319F11092D45183
:1034A000A7019601602F712F8D2F9C2F0E9432292A
:1034B000062F172FD82FC92F2B2D3A2D492D582DD8
:1034C0000E94FD2A181624F40B2D1A2DD92DC82D73
:1034D00042E050E0602F712F8D2F9C2F0E944302FD
:1034E0002AC08091D351882331F11092D351A70182
:1034F0009601602F712F8D2F9C2F0E943129062F4E
:10350000172FD82FC92F262F372F482F592F672D28
:10351000762D852D942D0E94FD2A181624F4072D52
:10352000162DD52DC42D42E050E0602F712F8D2F28
:103530009C2F0E9443028FE097E20197F1F700C0B1
:10354000000088958091D751882309F4A3CF602F7C
:10355000712F8D2F9C2FDF91CF911F910F91FF9095
:10356000EF90DF90CF90BF90AF909F908F907F9023
:103570006F905F904F9008954F925F926F927F92FD
:103580008F929F92AF92BF92CF92DF92EF92FF9273
:103590000F931F93CF9381E997E40E94F10110925A
:1035A000D8511092D65188958FE097E20197F1F7A4
:1035B00000C000008091D851811105C08091D65182
:1035C000882389F304C08091D651882319F0109282
:1035D000D6516AC29FE728E381E0915020408040A5
:1035E000E1F700C000001092D85182ED97E40E94EC
:1035F000F10160911A4070911B4080911C409091A4
:103600001D4042E050E00E94430286EE97E40E9493
:10361000F10160911640709117408091184090918F
:10362000194042E050E00E9443028BEF97E40E9471
:10363000F1016091144070911540072E000C880B29
:10364000990B0E9438028BE098E40E94F10160918E
:10365000124070911340072E000C880B990B0E94AA
:1036600038028CE198E40E94F1011092D851109236
:10367000D65188958FE493EC0197F1F700C00000D4
:103680008091D65181110AC28091D851882389F343
:10369000D1C188958FE493EC0197F1F700C0000049
:1036A0008091D651811105C08091D851882389F32A
:1036B00004C08091D8518823B9F01092D8518DE67A
:1036C00098E40E94F101E12CF12C00E81FE320E0D6
:1036D00030E048E452E460E070E088E493E40E9463
:1036E0002A1A4B015C0105C01092D651812C912CF5
:1036F00054019FE728E381E0915020408040E1F7AA
:1037000000C0000089E798E40E94F1011092D851AE
:103710001092D65188958FE493EC0197F1F700C091
:1037200000008091D651811105C08091D851882325
:1037300089F304C08091D8518823E1F01092D851C8
:103740008DEB98E40E94F101E12CF12C00E01FE3E5
:1037500020E030E0A90160E070E088EC92E40E9493
:103760002A1A6093D9517093DA518093DB51909368
:10377000DC510AC01092D6511092D9511092DA51F0
:103780001092DB511092DC518BE499E40E94F1011C
:103790006091DD517091DE518091DF519091E05147
:1037A00042E050E00E94430283EC98E40E94F10161
:1037B0006091D9517091DA518091DB519091DC5137
:1037C00042E050E00E9443028DE698E40E94F1013D
:1037D00042E050E0C501B4010E94430220E030E025
:1037E000A901C501B4010E949E29811115C0209133
:1037F0001A4030911B4040911C4050911D406091F7
:10380000DD517091DE518091DF519091E0510E9425
:10381000A3296B017C01A8C06091144070911540F0
:10382000072E000C880B990B0E944D2A6B017C011E
:103830009B01AC01C501B4010E94FD2A18163CF59C
:103840006091124070911340072E000C880B990B69
:103850000E944D2A9B01AC01C501B4010E949E2922
:103860008823ACF420911A4030911B4040911C40B9
:1038700050911D406091DD517091DE518091DF517A
:103880009091E0510E94A3296B017C016DC0609171
:10389000124070911340072E000C880B990B0E9468
:1038A0004D2A2B013C019B01AC01C501B4010E94D2
:1038B000FD2A18166CF520911A4030911B4040915A
:1038C0001C4050911D406091DD517091DE518091FE
:1038D000DF519091E0510E94A3296B017C01A3016B
:1038E0009201C501B4010E94312920911640309106
:1038F000174040911840509119400E94A3299B0104
:10390000AC01C701B6010E9432296B017C012CC0B9
:1039100020911A4030911B4040911C4050911D4015
:103920006091DD517091DE518091DF519091E051B5
:103930000E94A3292B013C01A5019401C701B601F6
:103940000E94312920911640309117404091184033
:10395000509119400E94A3299B01AC01C301B201FF
:103960000E9431296B017C018090D9519090DA51ED
:10397000A090DB51B090DC51A5019401C701B601C4
:103980000E949E2918162CF083ED98E40E94F10104
:103990008BC0A5019401C701B6010E9431296B01BA
:1039A0007C011092D7518EE099E40E94F101C0E0B1
:1039B0008091D451882341F01092D4518FE299E440
:1039C0000E94F101C1E00BC08091D351882339F0EE
:1039D0001092D35185E399E40E94F101C0E08FE099
:1039E00097E20197F1F700C0000088958091D751C8
:1039F0008823F1F28FE296E40E94F10142E050E068
:103A0000C701B6010E9443028FE399E40E94F101CD
:103A1000CC2329F08FE299E40E94F10104C085E3F0
:103A200099E40E94F10121E04C2FC701B6010E94E8
:103A3000A4173AC09FE728E381E0915020408040DE
:103A4000E1F700C0000085E499E40E94F101E12C57
:103A5000F12C00EA10E420E030E0A90160E070E021
:103A600088EC92E40E942A1A6093DD517093DE5133
:103A70008093DF519093E0519FE728E381E09150DC
:103A800020408040E1F700C0000088E599E40E94F2
:103A9000F1011092D8511092D651FBCD1092D6510F
:103AA00088E999E40E94F101CF911F910F91FF9055
:103AB000EF90DF90CF90BF90AF909F908F907F90CE
:103AC0006F905F904F900895CF92DF92EF92FF92A8
:103AD0000F931F93CF930E94CB198EE999E40E9414
:103AE000F1011092D8511092D6518FE097E20197D0
:103AF000F1F700C0000088958091D851811105C070
:103B00008091D651882389F304C08091D6518823AF
:103B100021F081E08093D85174C09FE728E381E0D1
:103B2000915020408040E1F700C000001092D65133
:103B300089ED99E40E94F10160910640709107407F
:103B40008091084090910940E12CF12C00E01FE3A6
:103B500020E030E0A9010E942A1A6B017C0184E177
:103B60009AE40E94F10142E050E0C701B6010E94D0
:103B700043021092D7518EE099E40E94F101C0E017
:103B80008091D451882341F01092D4518FE299E46E
:103B90000E94F101C1E00BC08091D351882339F01C
:103BA0001092D35185E399E40E94F101C0E08FE0C7
:103BB00097E20197F1F700C0000088958091D751F6
:103BC0008823F1F284E19AE40E94F10142E050E09E
:103BD000C701B6010E9443028FE399E40E94F101FC
:103BE000CC2329F08FE299E40E94F10104C085E31F
:103BF00099E40E94F10120E04C2FC701B6010E9418
:103C0000A417CF911F910F91FF90EF90DF90CF906D
:103C10000895CF93DF938FE29AE40E94F10110920E
:103C2000D751C0E0D0E08FE097E20197F1F700C0F4
:103C3000000088958091D451882381F01092D4514E
:103C40002196C831D10514F0C7E1D0E0BE010D2E98
:103C5000000C880B990B0E94380211C08091D3513F
:103C6000882369F01092D351219712F4C0E0D0E07C
:103C7000BE010D2E000C880B990B0E94380280911A
:103C8000D751882381F29FE728E381E091502040BB
:103C90008040E1F700C000001092D7518C2FDF91D7
:103CA000CF910895CF93DF938AE49AE40E94F101C3
:103CB0001092D751C0E0D0E08FE097E20197F1F782
:103CC00000C0000088958091D451882381F0109223
:103CD000D4512196CC33D10514F0CBE3D0E0BE0112
:103CE0000D2E000C880B990B0E94380211C0809198
:103CF000D351882369F01092D351219712F4C0E078
:103D0000D0E0BE010D2E000C880B990B0E943802EA
:103D10008091D751882381F29FE728E381E0915079
:103D200020408040E1F700C000001092D7518C2F56
:103D3000DF91CF910895CF92DF92EF92FF9287E6C5
:103D40009AE40E94F1011092D7510F2EC12CD12C70
:103D5000F0E2EF2EF1E4FF2EF02D8FE097E20197D5
:103D6000F1F700C0000088958091D451882319F1A3
:103D70001092D45120E030E040E05FE3C701B6018B
:103D80000E9432296B017C0120E030E048E452E4DB
:103D90000E94FD2A181644F40F2EC12CD12CF8E4F1
:103DA000EF2EF2E4FF2EF02D44E050E0C701B60103
:103DB0000E94430227C08091D351882319F11092A9
:103DC000D35120E030E040E05FE3C701B6010E943C
:103DD00031296B017C012DEC3CEC4CEC5CE30E9446
:103DE0009E2988234CF40F2EFDECCF2EFCECDF2E09
:103DF000ED2CFCE3FF2EF02D44E050E0C701B601AE
:103E00000E9443028091D751882309F4A6CF9FE7EF
:103E100028E381E0915020408040E1F700C000009D
:103E20001092D75120E030E04AE754E4C701B601D0
:103E30000E94022B0E941C2ACB01FF90EF90DF9082
:103E4000CF900895AF92BF92CF92DF92EF92FF9200
:103E50000F931F93CF93DF93C091AC51CF5FC0936B
:103E6000AC5186E89AE40E94F1016C2F70E080E08A
:103E700090E00E9438022C2F30E0C9010197AC017C
:103E8000440F551F840F951F880F991F8093AA51C7
:103E90009093AB51C13091F48CE090E00E94772D6B
:103EA0008093AD519093AE51892B29F58DE89AE41A
:103EB0000E94F10180E090E00E94A52FB901660FF9
:103EC000771F620F731F660F771F660F771F809132
:103ED000AD519091AE510E94982E8093AD51909328
:103EE000AE51892B41F48DE89AE40E94F10180E003
:103EF00090E00E94A52F83EA9AE40E94F1010E94BB
:103F0000091E182F0E94521E0F2EF4E6FF2EF02DD0
:103F1000C82FD0E0F19EC00DD11D11248FEA9AE484
:103F20000E94F1010E94091EE82E0E94521E082FD5
:103F300010E0FE9C000D111D11248CE79AE40E94F4
:103F4000F1010E949B1E0C171D0728F489EB9AE4CF
:103F50000E94F1019CC02091A8513091A951C21733
:103F6000D30708F09CC082EE9AE40E94F1018FC052
:103F700088952FE788E391E0215080409040E1F759
:103F800000C000008091D6518111B4C08091D851F9
:103F9000882371F3AAC00FE110E0C0E0D0E00F2E3B
:103FA000F3E0CF2ED12CF02DCE01B6010E94F42CDF
:103FB000FB01EE0FFF1F6E0F7F1FFB01EE0FFF1FB8
:103FC0008E0F9F1F880F991FE091AD51F091AE5158
:103FD000E80FF91F60817181C8010E94DA042196FF
:103FE0000E5F1F4FCE15DF05F9F6B0C0CE010E945F
:103FF0000105BC0180E090E00E9438022296EC1698
:10400000FD06A1F78DE09BE40E94F1011A141B0448
:10401000BCF5E12CF12C00E010E0C091AD51D09145
:10402000AE51CE0DDF1D6881798180E090E024E003
:1040300030E04BEE51E50E94F9008BEE91E50E94D5
:10404000F1016A817B8180E090E024E030E04BEE7A
:1040500051E50E94F9008BEE91E50E94F1016C811F
:104060007D8180E090E00E9438028AE00E94E901B0
:104070000F5F1F4F2CE0E20EF11CA016B10669F68F
:104080008091AD519091AE510E940F2E75C08091DC
:10409000AC5181508093AC510E94221F6DC0E091C1
:1040A000AD51F091AE514091AA515091AB519A014E
:1040B000220F331FE20FF31FC083D18302831383C8
:1040C0000093A8511093A9514D5F5F4F4093AA519F
:1040D0005093AB518483958387E19BE40E94F10167
:1040E0001092D8511092D65143CF1092D8510E94BD
:1040F000221F42C01092D65182E59BE40E94F1013A
:10410000A090AC516A2D70E080E090E00E943802EF
:104110006A2D8EE190E00E94ED04B12C7501EE0C49
:10412000FF1CEA0CFB1C1E141F040CF434CF85E6A4
:104130009BE40E94F1018EE190E00E940605682F49
:1041400070E080E090E00E9438025CCF85E69BE45E
:104150000E94F1018EE190E00E940605682F70E058
:1041600080E090E00E943802EE0CFF1C8FE1E80E28
:10417000F11CCFE1D0E03ACFDF91CF911F910F91A9
:10418000FF90EF90DF90CF90BF90AF9008950F9386
:104190001F93CF93DF938EE190E00E940605882362
:1041A00009F45DC08EE190E00E9406058F3F09F49E
:1041B00056C085E99BE40E94F1018EE190E00E94E7
:1041C0000605682F70E080E090E00E943802809140
:1041D000AC5190E08C01000F111F800F911F181639
:1041E00019060CF051C0880F991F8C01015E1F4FFA
:1041F000CFE1D0E0CE010E940105BC0180E090E05B
:104200000E9438022296C017D107A1F786EA9BE4E4
:104210000E94F1011092D7511092D65188952FE744
:1042200088E391E0215080409040E1F700C0000019
:104230008091D651811160C08091D751882371F34C
:104240002CC06FEF7FEFCE010E94DA042296C017D8
:10425000D107B9F786EA92E40E94F10104C08CEE1E
:104260009BE40E94F10188E09CE40E94F1018CE152
:104270009CE40E94F10181E49CE40E94F10110920F
:10428000AC510E94221F38C086EA9BE40E94F101D3
:104290001092D7511092D651C1CF1092D7518EE1C2
:1042A00090E00E940605C82F8093AC5185EE9CE4F7
:1042B0000E94F1016C2F70E080E090E00E943802D3
:1042C00082E992E40E94F1016FEF8EE190E00E949A
:1042D000ED048C2F90E08C01000F111F800F911FB7
:1042E000181619060CF0B6CF880F991F8C01015EC5
:1042F0001F4FCFE1D0E0A5CFDF91CF911F910F915C
:1043000008954F925F926F927F92AF92BF92CF9239
:10431000DF92EF92FF920F931F93CF93DF936C0185
:1043200085EF9CE40E94F1018EE190E00E94060579
:10433000882309F4AFC08EE190E00E9406058F3F0C
:1043400009F4A8C081E19DE40E941602B60180E054
:1043500090E00E9438028EE190E00E940605D82F7E
:104360008093AC5185EE9CE40E94F101DD2309F4B9
:1043700093C000E010E0C0E0CF5F8CE19DE40E94BC
:10438000F1014C2E512C612C712CC301B2010E9401
:1043900038025801780181E2E80EF11CC7010E9441
:1043A0000105BC0180E090E00E943802C7010E9434
:1043B0000105C816D90608F066C085E29DE40E9492
:1043C000F101C301B2010E943802E8016F96CE01EB
:1043D0000E940105BC0180E090E00E943802C70104
:1043E0000E940105BC0180E090E00E94380283E257
:1043F000A80EB11CC5010E9401059C0136952795A8
:104400003695279536952795A5ECB0E20E94492D63
:10441000929582958F7089279F708927BC0180E0D3
:1044200090E00E944B2A44E050E00E944302C50104
:104430000E9401056C01C7010E9401058C01CE019B
:104440000E940105EC019601369527953695279532
:1044500036952795A5ECB0E20E94492D929582955C
:104460008F7089279F708927BC0180E090E00E94AF
:104470004B2A9B01AC01B801CE010E946E2381E062
:104480008093D05109C01092D0510A5F1F4FDC13A6
:1044900073CF02C01092D051DF91CF911F910F9135
:1044A000FF90EF90DF90CF90BF90AF907F906F9094
:1044B0005F904F9008952F923F926F927F928F92CC
:1044C0009F92AF92BF92CF92DF92EF92FF920F93A3
:1044D0001F93CF93DF93CDB7DEB72697CDBFDEBF57
:1044E00089839A838B012B833C834D835E837090F9
:1044F000465260901D522090305287E080932352A4
:1045000089819A810E94A9054B015C0188E49DE4A0
:104510000E941602B80180E090E00E94380282E01A
:10452000809323521092CF518091E7519091E8519E
:10453000A091E951B091EA51181619061A061B0606
:104540000CF078C0209122528091205290E034E605
:10455000239F800D911D11248017910708F06AC0D8
:10456000C12CD12C76010F2EF4E63F2EF02D8FEFCB
:10457000C81AD80AE80AF80AC701B6010E94380228
:104580000E94E808809184048A608093840480916A
:1045900084048F60809384048FE99FE00197F1F792
:1045A00000C00000809184048E7F809384048FE992
:1045B0009FE00197F1F700C00000809184048B7F99
:1045C000809384048FE99FE00197F1F700C0000019
:1045D000809184048160809384048FE99FE0019737
:1045E000F1F700C00000809186048F6080938604FC
:1045F000C501B4010E9455178091E7519091E8518F
:10460000A091E951B091EA51C816D906EA06FB0615
:104610008CF480912352823069F42091225280914F
:10462000205290E0329E800D911D11248017910739
:1046300008F49DCFE0E4F1E080818E7F808380915B
:104640002352843059F11092235282E59DE40E9456
:10465000F101622D70E06053784F862D90E040E0CC
:1046600050E024E6729E800D911D11240E942D15AC
:1046700020E030E04AE754E46B817C818D819E81AB
:104680000E94022B0E941C2AAB01B80189819A81E9
:104690000E946F1685E79DE40E94F101C8010E9407
:1046A00081213FEF89E698E1315080409040E1F769
:1046B00000C000002696CDBFDEBFDF91CF911F91D5
:1046C0000F91FF90EF90DF90CF90BF90AF909F90B1
:1046D0008F907F906F903F902F900895CF92DF92B0
:1046E000EF92FF920F931F93CF93DF93EC018B0117
:1046F00069017A019C013695279536952795ABE798
:10470000B4E10E94492D969587952091225230E080
:104710002817390720F19E0136952795369527955C
:104720000E94492D9695879544E6489F9001499FA0
:10473000300D1124CE01821B930B9C0180912052DD
:1047400090E08217930758F085E99DE40E94F101FB
:10475000A7019601B801CE010E945B2223C0C0933D
:10476000E351D093E4510093E5511093E651C09288
:104770002C52D0922D52E0922E52F0922F52C09392
:10478000D151D093D25184EA9DE40E9416026091E7
:10479000D1517091D25180E090E00E94380285E0C2
:1047A00080932352DF91CF911F910F91FF90EF9053
:1047B000DF90CF900895809123528530D9F588EB12
:1047C0009DE40E94F1016091E3517091E45180E019
:1047D00090E00E94380283EC9DE40E94F101609118
:1047E000E5517091E65180E090E00E9438028CE73C
:1047F0009AE40E94F10160912C5270912D528091A7
:104800002E5290912F5242E050E00E94430220919C
:104810002C5230912D5240912E5250912F52609136
:10482000E5517091E6518091E3519091E4510E94DD
:104830006E230895823019F483E080932352089503
:10484000CF938091D051882371F180912252C4E698
:104850006091205270E0C89F600D711D1124072ED9
:10486000000C880B990B0E9438026091D151709115
:10487000D25180E090E00E94380220912252809133
:10488000205290E0C29F800D911D11242091D151A2
:104890003091D2518217930730F08CEC9DE40E9446
:1048A000F1010E94DB23CF9108950F931F93CF93C3
:1048B000DF938EE190E00E940605882309F467C02B
:1048C0008EE190E00E9406058F3F09F460C08EE102
:1048D00090E00E940605082F8093AC5185EE9CE481
:1048E0000E94F101002309F452C0CFE1D0E010E0B2
:1048F0008AE00E94E9011F5F8AED9DE40E94160292
:10490000612F70E080E090E00E94380285EE9DE427
:104910000E941602CE010E940105BC0180E090E0D9
:104920000E94380282EF9DE40E941602CE01029698
:104930000E940105BC0180E090E00E9438028DEFEA
:104940009DE40E941602CE0104960E9401059C017E
:10495000369527953695279536952795A5ECB0E29F
:104960000E94492D929582958F7089279F70892783
:10497000BC0180E090E00E944B2A44E050E00E949D
:1049800043028AE00E94E90126960113B1CFDF912C
:10499000CF911F910F9108952FE738E381E02150C7
:1049A00030408040E1F700C0000088E09EE40E94B3
:1049B000F1011092D8511092D65188958FE097E26C
:1049C0000197F1F700C000008091D851811105C016
:1049D0008091D651882389F304C08091D6518823D1
:1049E00031F081E08093D8511092D6510895109201
:1049F000D8519FE728E331E0915020403040E1F763
:104A000000C0000083E49EE40E94F1018CE49EE477
:104A10000E94F10189E59EE40E94F10189E69EE48D
:104A20000E94F10141E050E061E070E083E090E03D
:104A30000E94D81999278230910561F08330910541
:104A400081F0019709F588E79EE40E94F1010E9438
:104A5000C720089583E89EE40E94F1010E94552436
:104A6000089581E99EE40E94F10181E08093D05194
:104A7000209122528091205290E034E6239F800DB5
:104A8000911D11240E9481210895EF92FF920F93AE
:104A90001F938EE99EE40E94F101E12CF12C00E0CD
:104AA0001FE320E030E0A90160E070E088EC91E4D1
:104AB0000E942A1A60930640709307408093084032
:104AC0009093094084EB9EE40E9416026091064098
:104AD00070910740809108409091094042E050E079
:104AE0000E9443021F910F91FF90EF900895EF9263
:104AF000FF920F931F9380ED9EE40E94F101E12C41
:104B0000F12C00E81FE320E030E0A90160E070E054
:104B100088E492E40E942A1A60931A4070931B4022
:104B200080931C4090931D408AEE9EE40E94F10108
:104B300020E030E0A90160E070E088E492E40E94A7
:104B40002A1A6093164070931740809318409093F0
:104B5000194085E09FE40E94F10141E050E060E0EF
:104B600070E08AEF90E00E94D819809314409093EF
:104B7000154084E19FE40E94F10141E050E060E0D3
:104B800070E08AEF90E00E94D819809312409093D1
:104B9000134084E29FE40E94F10182ED97E40E94B9
:104BA000F10160911A4070911B4080911C409091DE
:104BB0001D4042E050E00E94430286EE97E40E94CE
:104BC000F1016091164070911740809118409091CA
:104BD000194042E050E00E9443028BEF97E40E94AC
:104BE000F1016091144070911540072E000C880B64
:104BF000990B0E9438028BE098E40E94F1016091C9
:104C0000124070911340072E000C880B990B0E94E4
:104C100038021F910F91FF90EF9008952FE788E3DE
:104C200091E0215080409040E1F700C0000081E415
:104C30009FE40E94F1011092D8511092D6518FE05A
:104C400097E20197F1F700C000008091D8518111DF
:104C500005C08091D651882391F304C08091D6512C
:104C6000882331F081E08093D8511092D651089575
:104C70001092D8519FE728E381E091502040804076
:104C8000E1F700C0000084E89FE40E94F10141E0E8
:104C900050E061E070E082E090E00E94D81999272E
:104CA0008130910519F0029721F008950E94452561
:104CB00008950E94772508958091D851882309F49A
:104CC00062C01092D85180EB9FE40E94F10185EC04
:104CD0009FE40E94F1018EEC9FE40E94F10187EDB8
:104CE0009FE40E94F10186EE9FE40E94F10187EFAC
:104CF0009FE40E94F10188E090E50E94F10110928A
:104D0000D75141E050E061E070E086E090E00E9421
:104D1000D81983309105E1F034F48130910551F0D8
:104D2000029779F008958530910501F1C4F0069756
:104D300031F108958AE290E50E94F1010E94641D1C
:104D4000089580E190E50E94F1010E94CC2408952D
:104D500084E290E50E94F1010E94BC1A08958AE362
:104D600090E50E94F1010E940E2608958AEF9FE4CB
:104D70000E94F1010E94B5110E94931208958BE0E8
:104D800090E50E94F10108958F929F92AF92BF9299
:104D9000CF92DF92EF92FF920F931F93CF93DF9307
:104DA00082E590E50E94F10141E050E061E070E0B1
:104DB0008FE190E00E94D8198C018CE590E50E946B
:104DC000F10141E050E061E070E08CE090E00E9491
:104DD000D8197C0187E690E50E94F10141E050E09E
:104DE00065EE77E083E398E00E94D8196C0181E7D3
:104DF00090E50E94F10141E050E060E070E087E161
:104E000090E00E94D8194C018BE790E50E94F101D7
:104E100041E050E060E070E08BE390E00E94D81940
:104E20005C0187E890E50E94F10141E050E060E01C
:104E300070E08BE390E00E94D819EC0183E990E5E3
:104E40000E94F101C60164E670E00E94F42C6C013E
:104E500021E030E0A401B501CE010E94C50783EA3C
:104E600090E50E94F101DF91CF911F910F91FF908A
:104E7000EF90DF90CF90BF90AF909F908F9008956C
:104E80008091D551882309F45CC01092D55182EBF2
:104E900090E50E94F10184EC90E50E94F10141E06F
:104EA00050E061E070E084E090E00E94D81999271A
:104EB0008230910589F01CF4019739F00895833010
:104EC0009105A1F10497C9F1089587EF90E50E943B
:104ED000F1010E94C42608958EE091E50E94F1013F
:104EE00081E291E50E94F10141E050E061E070E073
:104EF00082E090E00E94D81981709078992324F480
:104F000001978E6F9F6F019621E0009709F420E0D2
:104F10002093E151892B29F084E391E50E94F1016E
:104F2000089581E491E50E94F10108958FE491E5EF
:104F30000E94F1010E94140E08958BE090E50E94FA
:104F4000F10108957894E0E2F4E082898B60828B2D
:104F500086898B60868BE0E4F4E082898B60828BAB
:104F600086898B60868BE0E8F4E086898B60868B8F
:104F7000E0EAF4E082898B60828B08957894E0E81F
:104F8000F4E080818F6080838481807F848380E8E7
:104F900095E20E94BE010E94A2270E9488030E94FF
:104FA000F7030E9402070E94E2038091475290910A
:104FB0004852A0914952B0914A528093CB5190935C
:104FC000CC51A093CD51B093CE5186E08093E25165
:104FD00010922352E0E5F0E08081897F8260808337
:104FE00080818160808322E041E063E481E00E946F
:104FF000361782E691E50E94F10108950E94BE27CE
:105000000E94E8080E9420240E945C260E944027FB
:1050100087E893E10197F1F700C000008895F0CF91
:105020001F920F920FB60F9211240BB60F922F936F
:105030003F934F935F936F937F938F939F93AF9320
:10504000BF93EF93FF938091290482FF46C0E0E273
:10505000F4E081858460818781E08093D7518091DD
:10506000E251813009F055C08091475290914852E9
:10507000A0914952B0914A524091CB515091CC519C
:105080006091CD517091CE51841B950BA60BB70B3F
:1050900088389341A105B105E0F586E08093E2519F
:1050A00082898B60828B86898B60868BE0E4F4E05A
:1050B00082898B60828B86898B60868BE0E8F4E046
:1050C00086898B60868BE0EAF4E082898B60828B34
:1050D00086E791E50E94F1011CC08091290486FFBA
:1050E00018C08091475290914852A0914952B09176
:1050F0004A528093CB519093CC51A093CD51B09311
:10510000CE51E0E2F4E081858064818781E0809384
:10511000D851FF91EF91BF91AF919F918F917F9166
:105120006F915F914F913F912F910F900BBE0F9018
:105130000FBE0F901F9018951F920F920FB60F92EF
:1051400011240BB60F922F933F934F935F936F935E
:105150007F938F939F93AF93BF93EF93FF93809130
:10516000475290914852A0914952B0914A5280932F
:10517000CB519093CC51A093CD51B093CE5180910F
:10518000490482FF09C0E0E4F4E0818584608187FE
:1051900081E08093D6511CC08091490486FF18C0DD
:1051A000E0E4F4E08185806481878091E251813080
:1051B00061F485E891E50E94F1011092D751E0E297
:1051C000F4E082898B60828B03C081E08093D551AB
:1051D000FF91EF91BF91AF919F918F917F916F91CF
:1051E0005F914F913F912F910F900BBE0F900FBE8B
:1051F0000F901F9018951F920F920FB60F921124C7
:105200000BB60F928F939F93AF93BF93EF93FF9340
:105210008091475290914852A0914952B0914A5280
:105220008093CB519093CC51A093CD51B093CE515C
:105230008091A90482FF08C0E0EAF4E081858460DF
:10524000818781E08093D451FF91EF91BF91AF911D
:105250009F918F910F900BBE0F900FBE0F901F90DC
:1052600018955058BB27AA270E9449290C94C32A95
:105270000E94B52A38F00E94BC2A20F039F49F3FE2
:1052800019F426F40C94B22A0EF4E095E7FB0C9482
:10529000AC2AE92F0E94D42A58F3BA176207730781
:1052A0008407950720F079F4A6F50C94F62A0EF4FD
:1052B000E0950B2EBA2FA02D0B01B90190010C0126
:1052C000CA01A0011124FF27591B99F0593F50F43E
:1052D000503E68F11A16F040A22F232F342F442796
:1052E000585FF3CF469537952795A795F04053958E
:1052F000C9F77EF41F16BA0B620B730B840BBAF05E
:105300009150A1F0FF0FBB1F661F771F881FC2F7C8
:105310000EC0BA0F621F731F841F48F487957795DC
:105320006795B795F7959E3F08F0B0CF9395880F96
:1053300008F09927EE0F9795879508950E94882A7F
:1053400008F481E008950E94B7290C94C32A0E94B2
:10535000BC2A58F00E94B52A40F029F45F3F29F09A
:105360000C94AC2A51110C94F72A0C94B22A0E9486
:10537000D42A68F39923B1F3552391F3951B550B68
:10538000BB27AA2762177307840738F09F5F5F4F18
:10539000220F331F441FAA1FA9F335D00E2E3AF057
:1053A000E0E832D091505040E695001CCAF72BD06F
:1053B000FE2F29D0660F771F881FBB1F26173707C0
:1053C0004807AB07B0E809F0BB0B802DBF01FF27F2
:1053D00093585F4F3AF09E3F510578F00C94AC2AF9
:1053E0000C94F72A5F3FE4F3983ED4F386957795C3
:1053F0006795B795F7959F5FC9F7880F911D9695AB
:10540000879597F90895E1E0660F771F881FBB1F06
:10541000621773078407BA0720F0621B730B840BB3
:10542000BA0BEE1F88F7E09508950E941C2A689435
:10543000B1110C94F72A08950E94DC2A88F09F5736
:1054400098F0B92F9927B751B0F0E1F0660F771FA8
:10545000881F991F1AF0BA95C9F714C0B13091F09E
:105460000E94F62AB1E008950C94F62A672F782F4F
:105470008827B85F39F0B93FCCF386957795679563
:10548000B395D9F73EF490958095709561957F4FCF
:105490008F4F9F4F0895E89409C097FB3EF4909575
:1054A0008095709561957F4F8F4F9F4F9923A9F0FD
:1054B000F92F96E9BB279395F6958795779567958C
:1054C000B795F111F8CFFAF4BB0F11F460FF1BC0D0
:1054D0006F5F7F4F8F4F9F4F16C0882311F096E963
:1054E00011C0772321F09EE8872F762F05C0662311
:1054F00071F096E8862F70E060E02AF09A95660FCA
:10550000771F881FDAF7880F9695879597F9089582
:10551000990F0008550FAA0BE0E8FEEF16161706C4
:10552000E807F907C0F012161306E407F50798F02C
:10553000621B730B840B950B39F40A2661F0232B45
:10554000242B252B21F408950A2609F4A140A695C1
:105550008FEF811D811D089597F99F6780E870E0A6
:1055600060E008959FEF80EC089500240A941616D9
:10557000170618060906089500240A941216130641
:10558000140605060895092E0394000C11F48823CF
:1055900052F0BB0F40F4BF2B11F460FF04C06F5FEB
:1055A0007F4F8F4F9F4F089557FD9058440F551FC1
:1055B00059F05F3F71F04795880F97FB991F61F095
:1055C0009F3F79F087950895121613061406551F0C
:1055D000F2CF4695F1DF08C0161617061806991F78
:1055E000F1CF86957105610508940895E894BB276D
:1055F00066277727CB0197F908950E94882A08F437
:105600008FEF08950E94152B0C94C32A0E94B52A8F
:1056100038F00E94BC2A20F0952311F00C94AC2A9B
:105620000C94B22A11240C94F72A0E94D42A70F305
:10563000959FC1F3950F50E0551F629FF001729F37
:10564000BB27F00DB11D639FAA27F00DB11DAA1F46
:10565000649F6627B00DA11D661F829F2227B00D93
:10566000A11D621F739FB00DA11D621F839FA00D1E
:10567000611D221F749F3327A00D611D231F849F6E
:10568000600D211D822F762F6A2F11249F575040C5
:105690009AF0F1F088234AF0EE0FFF1FBB1F661F40
:1056A000771F881F91505040A9F79E3F510580F009
:1056B0000C94AC2A0C94F72A5F3FE4F3983ED4F3A1
:1056C000869577956795B795F795E7959F5FC1F7AD
:1056D000FE2B880F911D9695879597F90895FA01ED
:1056E000EE0FFF1F309621053105A1F161157105FF
:1056F00061F48038BFE39B0749F1689490388105D5
:1057000061F08038BFEF9B0741F099234AF5FF3FD6
:10571000E1053105210519F1E8940894E795D901CF
:10572000AA2329F4AB2FBE2FF85FD0F310C0FF5F80
:1057300070F4A695E0F7F73950F019F0FF3A38F415
:105740009F779F930DD00F9007FC9058089546F0D7
:105750000C94B22A60E070E080E89FE308954FE780
:105760009F775F934F933F932F930E946A2C2F91C3
:105770003F914F915F910E94022B0C94C72B29F40B
:1057800016F00C94AC2A0C94F62A0C94B22A0E94BF
:10579000DC2AA8F39638A0F707F80F92E8942BE3D9
:1057A0003AEA48EB5FE70E94182B0F920F920F9294
:1057B0004DB75EB70F920E94B22CE0E0F1E00E947C
:1057C000F92B4F915F91EF91FF91E595EE1FFF1F30
:1057D00049F0FE57E0684427EE0F441FFA95E1F7C1
:1057E0004195550B0E942C2C0F9007FE0C94202CF9
:1057F0000895DF93CF931F930F93FF92EF92DF9261
:105800007B018C01689406C0DA2EEF010E94152BF3
:10581000FE01E894A5912591359145915591A6F306
:10582000EF010E944929FE019701A801DA9469F766
:10583000DF90EF90FF900F911F91CF91DF9108952E
:105840009B01AC0160E070E080E89FE30C94A32929
:105850000C94AC2A0C94E62C0E94DC2AD8F39923F1
:10586000C9F3940F511DA3F39150504094F059F097
:10587000882332F0660F771F881F91505040C1F780
:105880009E3F51052CF7880F911D9695879597F9A6
:1058900008955F3FACF0983E9CF0BB2786957795C6
:1058A0006795B79508F4B1609395C1F7BB0F58F7AA
:1058B00011F460FFE8CF6F5F7F4F8F4F9F4FE3CFB3
:1058C0000C94F72A16F00C94E62C0C94B22A6894E7
:1058D0000C94AC2A0E94DC2AA8F39923C1F3AEF3FE
:1058E000DF93CF931F930F93FF92C92FDD27882358
:1058F0002AF02197660F771F881FDAF720E030E043
:1059000040E85FEB9FE3883920F0803E38F0219635
:105910008F770E943229E8E2F1E004C00E94322928
:10592000E5E5F1E00E94F92B8B01BE01EC01FB2EB5
:105930006F5771097595771F880B990B0E944D2A37
:1059400028E132E741E35FE30E94152BAF2D980178
:10595000AE01FF900F911F91CF91DF910E944929D5
:105960000C94C32AFA01DC01AA0FBB1F9B01AC01F6
:10597000BF5728F4222733274427507820C0B75137
:1059800090F4AB2F0024469537952795011CA395DD
:10599000D2F3002071F0220F331F441FB395DAF3C6
:1059A0000ED00C94312961307105A0E88A07B94600
:1059B00030F49B01AC0166277727882790783096D2
:1059C00021F0208331834283538308959F3F31F038
:1059D000915020F4879577956795B795880F911D1D
:1059E0009695879597F9089597FB072E16F40094DE
:1059F00007D077FD09D00E94632D07FC05D03EF447
:105A0000909581959F4F0895709561957F4F08956A
:105A1000A1E21A2EAA1BBB1BFD010DC0AA1FBB1FB2
:105A2000EE1FFF1FA217B307E407F50720F0A21B24
:105A3000B30BE40BF50B661F771F881F991F1A9491
:105A400069F760957095809590959B01AC01BD01BB
:105A5000CF010895052E97FB1EF400940E94412D5E
:105A600057FD07D00E94082D07FC03D04EF40C947C
:105A7000412D50954095309521953F4F4F4F5F4FA9
:105A8000089590958095709561957F4F8F4F9F4FAA
:105A90000895A29FB001B39FC001A39F700D811D07
:105AA0001124911DB29F700D811D1124911D089527
:105AB0000E94492DA59F900DB49F900DA49F800D2D
:105AC000911D11240895AA1BBB1B51E107C0AA1FF9
:105AD000BB1FA617B70710F0A61BB70B881F991F8F
